{
  "_format": "hh-sol-artifact-1",
  "contractName": "MyNFTMarketplace",
  "sourceName": "contracts/NFT.sol",
  "abi": [
    {
      "inputs": [],
      "stateMutability": "nonpayable",
      "type": "constructor"
    },
    {
      "anonymous": false,
      "inputs": [
        {
          "indexed": true,
          "internalType": "address",
          "name": "owner",
          "type": "address"
        },
        {
          "indexed": true,
          "internalType": "address",
          "name": "approved",
          "type": "address"
        },
        {
          "indexed": true,
          "internalType": "uint256",
          "name": "tokenId",
          "type": "uint256"
        }
      ],
      "name": "Approval",
      "type": "event"
    },
    {
      "anonymous": false,
      "inputs": [
        {
          "indexed": true,
          "internalType": "address",
          "name": "owner",
          "type": "address"
        },
        {
          "indexed": true,
          "internalType": "address",
          "name": "operator",
          "type": "address"
        },
        {
          "indexed": false,
          "internalType": "bool",
          "name": "approved",
          "type": "bool"
        }
      ],
      "name": "ApprovalForAll",
      "type": "event"
    },
    {
      "anonymous": false,
      "inputs": [
        {
          "indexed": true,
          "internalType": "address",
          "name": "previousOwner",
          "type": "address"
        },
        {
          "indexed": true,
          "internalType": "address",
          "name": "newOwner",
          "type": "address"
        }
      ],
      "name": "OwnershipTransferred",
      "type": "event"
    },
    {
      "anonymous": false,
      "inputs": [
        {
          "indexed": true,
          "internalType": "address",
          "name": "from",
          "type": "address"
        },
        {
          "indexed": true,
          "internalType": "address",
          "name": "to",
          "type": "address"
        },
        {
          "indexed": true,
          "internalType": "uint256",
          "name": "tokenId",
          "type": "uint256"
        }
      ],
      "name": "Transfer",
      "type": "event"
    },
    {
      "inputs": [
        {
          "internalType": "address",
          "name": "",
          "type": "address"
        },
        {
          "internalType": "uint256",
          "name": "",
          "type": "uint256"
        }
      ],
      "name": "addressToTokenExists",
      "outputs": [
        {
          "internalType": "bool",
          "name": "",
          "type": "bool"
        }
      ],
      "stateMutability": "view",
      "type": "function"
    },
    {
      "inputs": [
        {
          "internalType": "address",
          "name": "to",
          "type": "address"
        },
        {
          "internalType": "uint256",
          "name": "tokenId",
          "type": "uint256"
        }
      ],
      "name": "approve",
      "outputs": [],
      "stateMutability": "nonpayable",
      "type": "function"
    },
    {
      "inputs": [
        {
          "internalType": "address",
          "name": "owner",
          "type": "address"
        }
      ],
      "name": "balanceOf",
      "outputs": [
        {
          "internalType": "uint256",
          "name": "",
          "type": "uint256"
        }
      ],
      "stateMutability": "view",
      "type": "function"
    },
    {
      "inputs": [
        {
          "internalType": "uint256",
          "name": "_tokenId",
          "type": "uint256"
        }
      ],
      "name": "buyToken",
      "outputs": [],
      "stateMutability": "payable",
      "type": "function"
    },
    {
      "inputs": [
        {
          "internalType": "uint256",
          "name": "tokenId",
          "type": "uint256"
        }
      ],
      "name": "getApproved",
      "outputs": [
        {
          "internalType": "address",
          "name": "",
          "type": "address"
        }
      ],
      "stateMutability": "view",
      "type": "function"
    },
    {
      "inputs": [
        {
          "internalType": "address",
          "name": "owner",
          "type": "address"
        },
        {
          "internalType": "address",
          "name": "operator",
          "type": "address"
        }
      ],
      "name": "isApprovedForAll",
      "outputs": [
        {
          "internalType": "bool",
          "name": "",
          "type": "bool"
        }
      ],
      "stateMutability": "view",
      "type": "function"
    },
    {
      "inputs": [
        {
          "internalType": "string",
          "name": "tokenURI",
          "type": "string"
        },
        {
          "internalType": "uint256",
          "name": "_price",
          "type": "uint256"
        }
      ],
      "name": "mint",
      "outputs": [],
      "stateMutability": "payable",
      "type": "function"
    },
    {
      "inputs": [],
      "name": "name",
      "outputs": [
        {
          "internalType": "string",
          "name": "",
          "type": "string"
        }
      ],
      "stateMutability": "view",
      "type": "function"
    },
    {
      "inputs": [],
      "name": "nextTokenId",
      "outputs": [
        {
          "internalType": "uint256",
          "name": "",
          "type": "uint256"
        }
      ],
      "stateMutability": "view",
      "type": "function"
    },
    {
      "inputs": [],
      "name": "owner",
      "outputs": [
        {
          "internalType": "address",
          "name": "",
          "type": "address"
        }
      ],
      "stateMutability": "view",
      "type": "function"
    },
    {
      "inputs": [
        {
          "internalType": "uint256",
          "name": "tokenId",
          "type": "uint256"
        }
      ],
      "name": "ownerOf",
      "outputs": [
        {
          "internalType": "address",
          "name": "",
          "type": "address"
        }
      ],
      "stateMutability": "view",
      "type": "function"
    },
    {
      "inputs": [
        {
          "internalType": "uint256",
          "name": "",
          "type": "uint256"
        }
      ],
      "name": "priceOfToken",
      "outputs": [
        {
          "internalType": "uint256",
          "name": "",
          "type": "uint256"
        }
      ],
      "stateMutability": "view",
      "type": "function"
    },
    {
      "inputs": [],
      "name": "renounceOwnership",
      "outputs": [],
      "stateMutability": "nonpayable",
      "type": "function"
    },
    {
      "inputs": [
        {
          "internalType": "address",
          "name": "from",
          "type": "address"
        },
        {
          "internalType": "address",
          "name": "to",
          "type": "address"
        },
        {
          "internalType": "uint256",
          "name": "tokenId",
          "type": "uint256"
        }
      ],
      "name": "safeTransferFrom",
      "outputs": [],
      "stateMutability": "nonpayable",
      "type": "function"
    },
    {
      "inputs": [
        {
          "internalType": "address",
          "name": "from",
          "type": "address"
        },
        {
          "internalType": "address",
          "name": "to",
          "type": "address"
        },
        {
          "internalType": "uint256",
          "name": "tokenId",
          "type": "uint256"
        },
        {
          "internalType": "bytes",
          "name": "data",
          "type": "bytes"
        }
      ],
      "name": "safeTransferFrom",
      "outputs": [],
      "stateMutability": "nonpayable",
      "type": "function"
    },
    {
      "inputs": [
        {
          "internalType": "address",
          "name": "operator",
          "type": "address"
        },
        {
          "internalType": "bool",
          "name": "approved",
          "type": "bool"
        }
      ],
      "name": "setApprovalForAll",
      "outputs": [],
      "stateMutability": "nonpayable",
      "type": "function"
    },
    {
      "inputs": [
        {
          "internalType": "uint256",
          "name": "_tokenId",
          "type": "uint256"
        },
        {
          "internalType": "uint256",
          "name": "_tokenPrice",
          "type": "uint256"
        }
      ],
      "name": "setTokenPrice",
      "outputs": [],
      "stateMutability": "nonpayable",
      "type": "function"
    },
    {
      "inputs": [
        {
          "internalType": "bytes4",
          "name": "interfaceId",
          "type": "bytes4"
        }
      ],
      "name": "supportsInterface",
      "outputs": [
        {
          "internalType": "bool",
          "name": "",
          "type": "bool"
        }
      ],
      "stateMutability": "view",
      "type": "function"
    },
    {
      "inputs": [],
      "name": "symbol",
      "outputs": [
        {
          "internalType": "string",
          "name": "",
          "type": "string"
        }
      ],
      "stateMutability": "view",
      "type": "function"
    },
    {
      "inputs": [
        {
          "internalType": "address",
          "name": "",
          "type": "address"
        },
        {
          "internalType": "uint256",
          "name": "",
          "type": "uint256"
        }
      ],
      "name": "tokenIdsOf",
      "outputs": [
        {
          "internalType": "uint256",
          "name": "",
          "type": "uint256"
        }
      ],
      "stateMutability": "view",
      "type": "function"
    },
    {
      "inputs": [
        {
          "internalType": "uint256",
          "name": "tokenId",
          "type": "uint256"
        }
      ],
      "name": "tokenURI",
      "outputs": [
        {
          "internalType": "string",
          "name": "",
          "type": "string"
        }
      ],
      "stateMutability": "view",
      "type": "function"
    },
    {
      "inputs": [
        {
          "internalType": "address",
          "name": "from",
          "type": "address"
        },
        {
          "internalType": "address",
          "name": "to",
          "type": "address"
        },
        {
          "internalType": "uint256",
          "name": "tokenId",
          "type": "uint256"
        }
      ],
      "name": "transferFrom",
      "outputs": [],
      "stateMutability": "nonpayable",
      "type": "function"
    },
    {
      "inputs": [
        {
          "internalType": "address",
          "name": "newOwner",
          "type": "address"
        }
      ],
      "name": "transferOwnership",
      "outputs": [],
      "stateMutability": "nonpayable",
      "type": "function"
    }
  ],
  "bytecode": "0x60806040523480156200001157600080fd5b506040518060400160405280601081526020017f4d794e46544d61726b6574706c616365000000000000000000000000000000008152506040518060400160405280600481526020017f4d4e46540000000000000000000000000000000000000000000000000000000081525081600090816200008f919062000412565b508060019081620000a1919062000412565b505050620000c4620000b8620000ca60201b60201c565b620000d260201b60201c565b620004f9565b600033905090565b6000600660009054906101000a900473ffffffffffffffffffffffffffffffffffffffff16905081600660006101000a81548173ffffffffffffffffffffffffffffffffffffffff021916908373ffffffffffffffffffffffffffffffffffffffff1602179055508173ffffffffffffffffffffffffffffffffffffffff168173ffffffffffffffffffffffffffffffffffffffff167f8be0079c531659141344cd1fd0a4f28419497f9722a3daafe3b4186f6b6457e060405160405180910390a35050565b600081519050919050565b7f4e487b7100000000000000000000000000000000000000000000000000000000600052604160045260246000fd5b7f4e487b7100000000000000000000000000000000000000000000000000000000600052602260045260246000fd5b600060028204905060018216806200021a57607f821691505b60208210810362000230576200022f620001d2565b5b50919050565b60008190508160005260206000209050919050565b60006020601f8301049050919050565b600082821b905092915050565b6000600883026200029a7fffffffffffffffffffffffffffffffffffffffffffffffffffffffffffffffff826200025b565b620002a686836200025b565b95508019841693508086168417925050509392505050565b6000819050919050565b6000819050919050565b6000620002f3620002ed620002e784620002be565b620002c8565b620002be565b9050919050565b6000819050919050565b6200030f83620002d2565b620003276200031e82620002fa565b84845462000268565b825550505050565b600090565b6200033e6200032f565b6200034b81848462000304565b505050565b5b8181101562000373576200036760008262000334565b60018101905062000351565b5050565b601f821115620003c2576200038c8162000236565b62000397846200024b565b81016020851015620003a7578190505b620003bf620003b6856200024b565b83018262000350565b50505b505050565b600082821c905092915050565b6000620003e760001984600802620003c7565b1980831691505092915050565b6000620004028383620003d4565b9150826002028217905092915050565b6200041d8262000198565b67ffffffffffffffff811115620004395762000438620001a3565b5b62000445825462000201565b6200045282828562000377565b600060209050601f8311600181146200048a576000841562000475578287015190505b620004818582620003f4565b865550620004f1565b601f1984166200049a8662000236565b60005b82811015620004c4578489015182556001820191506020850194506020810190506200049d565b86831015620004e45784890151620004e0601f891682620003d4565b8355505b6001600288020188555050505b505050505050565b6133f880620005096000396000f3fe6080604052600436106101405760003560e01c8063715018a6116100b6578063c87b56dd1161006f578063c87b56dd1461043e578063c9be651b1461047b578063e985e9c5146104b8578063eb685c47146104f5578063f2fde38b1461051e578063f30b41261461054757610140565b8063715018a61461035457806375794a3c1461036b5780638da5cb5b1461039657806395d89b41146103c1578063a22cb465146103ec578063b88d4fde1461041557610140565b806319eccb4e1161010857806319eccb4e1461022f57806323b872dd1461026c5780632d296bf11461029557806342842e0e146102b15780636352211e146102da57806370a082311461031757610140565b806301ffc9a714610145578063056b01ce1461018257806306fdde031461019e578063081812fc146101c9578063095ea7b314610206575b600080fd5b34801561015157600080fd5b5061016c60048036038101906101679190612028565b610584565b6040516101799190612070565b60405180910390f35b61019c60048036038101906101979190612207565b610666565b005b3480156101aa57600080fd5b506101b36107d4565b6040516101c091906122e2565b60405180910390f35b3480156101d557600080fd5b506101f060048036038101906101eb9190612304565b610866565b6040516101fd9190612372565b60405180910390f35b34801561021257600080fd5b5061022d600480360381019061022891906123b9565b6108ac565b005b34801561023b57600080fd5b50610256600480360381019061025191906123b9565b6109c3565b6040516102639190612070565b60405180910390f35b34801561027857600080fd5b50610293600480360381019061028e91906123f9565b6109f2565b005b6102af60048036038101906102aa9190612304565b610a52565b005b3480156102bd57600080fd5b506102d860048036038101906102d391906123f9565b610b53565b005b3480156102e657600080fd5b5061030160048036038101906102fc9190612304565b610b73565b60405161030e9190612372565b60405180910390f35b34801561032357600080fd5b5061033e6004803603810190610339919061244c565b610bf9565b60405161034b9190612488565b60405180910390f35b34801561036057600080fd5b50610369610cb0565b005b34801561037757600080fd5b50610380610cc4565b60405161038d9190612488565b60405180910390f35b3480156103a257600080fd5b506103ab610cca565b6040516103b89190612372565b60405180910390f35b3480156103cd57600080fd5b506103d6610cf4565b6040516103e391906122e2565b60405180910390f35b3480156103f857600080fd5b50610413600480360381019061040e91906124cf565b610d86565b005b34801561042157600080fd5b5061043c600480360381019061043791906125b0565b610d9c565b005b34801561044a57600080fd5b5061046560048036038101906104609190612304565b610dfe565b60405161047291906122e2565b60405180910390f35b34801561048757600080fd5b506104a2600480360381019061049d91906123b9565b610e66565b6040516104af9190612488565b60405180910390f35b3480156104c457600080fd5b506104df60048036038101906104da9190612633565b610e97565b6040516104ec9190612070565b60405180910390f35b34801561050157600080fd5b5061051c60048036038101906105179190612673565b610f2b565b005b34801561052a57600080fd5b506105456004803603810190610540919061244c565b611005565b005b34801561055357600080fd5b5061056e60048036038101906105699190612304565b611088565b60405161057b9190612488565b60405180910390f35b60007f80ac58cd000000000000000000000000000000000000000000000000000000007bffffffffffffffffffffffffffffffffffffffffffffffffffffffff1916827bffffffffffffffffffffffffffffffffffffffffffffffffffffffff1916148061064f57507f5b5e139f000000000000000000000000000000000000000000000000000000007bffffffffffffffffffffffffffffffffffffffffffffffffffffffff1916827bffffffffffffffffffffffffffffffffffffffffffffffffffffffff1916145b8061065f575061065e826110a0565b5b9050919050565b61066e61110a565b803410156106b1576040517f08c379a00000000000000000000000000000000000000000000000000000000081526004016106a8906126ff565b60405180910390fd5b600060075490506106c23382611188565b6106cc81846113a5565b816009600083815260200190815260200160002081905550600860003373ffffffffffffffffffffffffffffffffffffffff1673ffffffffffffffffffffffffffffffffffffffff1681526020019081526020016000208190806001815401808255809150506001900390600052602060002001600090919091909150556001600b60003373ffffffffffffffffffffffffffffffffffffffff1673ffffffffffffffffffffffffffffffffffffffff168152602001908152602001600020600083815260200190815260200160002060006101000a81548160ff0219169083151502179055506107c9600160075461141290919063ffffffff16565b600781905550505050565b6060600080546107e39061274e565b80601f016020809104026020016040519081016040528092919081815260200182805461080f9061274e565b801561085c5780601f106108315761010080835404028352916020019161085c565b820191906000526020600020905b81548152906001019060200180831161083f57829003601f168201915b5050505050905090565b600061087182611428565b6004600083815260200190815260200160002060009054906101000a900473ffffffffffffffffffffffffffffffffffffffff169050919050565b60006108b782610b73565b90508073ffffffffffffffffffffffffffffffffffffffff168373ffffffffffffffffffffffffffffffffffffffff1603610927576040517f08c379a000000000000000000000000000000000000000000000000000000000815260040161091e906127f1565b60405180910390fd5b8073ffffffffffffffffffffffffffffffffffffffff16610946611473565b73ffffffffffffffffffffffffffffffffffffffff16148061097557506109748161096f611473565b610e97565b5b6109b4576040517f08c379a00000000000000000000000000000000000000000000000000000000081526004016109ab90612883565b60405180910390fd5b6109be838361147b565b505050565b600b6020528160005260406000206020528060005260406000206000915091509054906101000a900460ff1681565b610a036109fd611473565b82611534565b610a42576040517f08c379a0000000000000000000000000000000000000000000000000000000008152600401610a3990612915565b60405180910390fd5b610a4d8383836115c9565b505050565b610a5b816118c2565b610a9a576040517f08c379a0000000000000000000000000000000000000000000000000000000008152600401610a9190612981565b60405180910390fd5b6009600082815260200190815260200160002054341015610af0576040517f08c379a0000000000000000000000000000000000000000000000000000000008152600401610ae7906129ed565b60405180910390fd5b6000610afb82610b73565b90508073ffffffffffffffffffffffffffffffffffffffff166108fc349081150290604051600060405180830381858888f19350505050158015610b43573d6000803e3d6000fd5b50610b4f8133846115c9565b5050565b610b6e83838360405180602001604052806000815250610d9c565b505050565b600080610b7f83611903565b9050600073ffffffffffffffffffffffffffffffffffffffff168173ffffffffffffffffffffffffffffffffffffffff1603610bf0576040517f08c379a0000000000000000000000000000000000000000000000000000000008152600401610be790612a59565b60405180910390fd5b80915050919050565b60008073ffffffffffffffffffffffffffffffffffffffff168273ffffffffffffffffffffffffffffffffffffffff1603610c69576040517f08c379a0000000000000000000000000000000000000000000000000000000008152600401610c6090612aeb565b60405180910390fd5b600360008373ffffffffffffffffffffffffffffffffffffffff1673ffffffffffffffffffffffffffffffffffffffff168152602001908152602001600020549050919050565b610cb861110a565b610cc26000611940565b565b60075481565b6000600660009054906101000a900473ffffffffffffffffffffffffffffffffffffffff16905090565b606060018054610d039061274e565b80601f0160208091040260200160405190810160405280929190818152602001828054610d2f9061274e565b8015610d7c5780601f10610d5157610100808354040283529160200191610d7c565b820191906000526020600020905b815481529060010190602001808311610d5f57829003601f168201915b5050505050905090565b610d98610d91611473565b8383611a06565b5050565b610dad610da7611473565b83611534565b610dec576040517f08c379a0000000000000000000000000000000000000000000000000000000008152600401610de390612915565b60405180910390fd5b610df884848484611b72565b50505050565b6060610e0982611428565b6000610e13611bce565b90506000815111610e335760405180602001604052806000815250610e5e565b80610e3d84611be5565b604051602001610e4e929190612b47565b6040516020818303038152906040525b915050919050565b60086020528160005260406000208181548110610e8257600080fd5b90600052602060002001600091509150505481565b6000600560008473ffffffffffffffffffffffffffffffffffffffff1673ffffffffffffffffffffffffffffffffffffffff16815260200190815260200160002060008373ffffffffffffffffffffffffffffffffffffffff1673ffffffffffffffffffffffffffffffffffffffff16815260200190815260200160002060009054906101000a900460ff16905092915050565b610f34826118c2565b610f73576040517f08c379a0000000000000000000000000000000000000000000000000000000008152600401610f6a90612981565b60405180910390fd5b610f7c82610b73565b73ffffffffffffffffffffffffffffffffffffffff163373ffffffffffffffffffffffffffffffffffffffff1614610fe9576040517f08c379a0000000000000000000000000000000000000000000000000000000008152600401610fe090612bb7565b60405180910390fd5b8060096000848152602001908152602001600020819055505050565b61100d61110a565b600073ffffffffffffffffffffffffffffffffffffffff168173ffffffffffffffffffffffffffffffffffffffff160361107c576040517f08c379a000000000000000000000000000000000000000000000000000000000815260040161107390612c49565b60405180910390fd5b61108581611940565b50565b60096020528060005260406000206000915090505481565b60007f01ffc9a7000000000000000000000000000000000000000000000000000000007bffffffffffffffffffffffffffffffffffffffffffffffffffffffff1916827bffffffffffffffffffffffffffffffffffffffffffffffffffffffff1916149050919050565b611112611473565b73ffffffffffffffffffffffffffffffffffffffff16611130610cca565b73ffffffffffffffffffffffffffffffffffffffff1614611186576040517f08c379a000000000000000000000000000000000000000000000000000000000815260040161117d90612cb5565b60405180910390fd5b565b600073ffffffffffffffffffffffffffffffffffffffff168273ffffffffffffffffffffffffffffffffffffffff16036111f7576040517f08c379a00000000000000000000000000000000000000000000000000000000081526004016111ee90612d21565b60405180910390fd5b611200816118c2565b15611240576040517f08c379a000000000000000000000000000000000000000000000000000000000815260040161123790612d8d565b60405180910390fd5b61124e600083836001611cb3565b611257816118c2565b15611297576040517f08c379a000000000000000000000000000000000000000000000000000000000815260040161128e90612d8d565b60405180910390fd5b6001600360008473ffffffffffffffffffffffffffffffffffffffff1673ffffffffffffffffffffffffffffffffffffffff16815260200190815260200160002060008282540192505081905550816002600083815260200190815260200160002060006101000a81548173ffffffffffffffffffffffffffffffffffffffff021916908373ffffffffffffffffffffffffffffffffffffffff160217905550808273ffffffffffffffffffffffffffffffffffffffff16600073ffffffffffffffffffffffffffffffffffffffff167fddf252ad1be2c89b69c2b068fc378daa952ba7f163c4a11628f55a4df523b3ef60405160405180910390a46113a1600083836001611cb9565b5050565b6113ae826118c2565b6113ed576040517f08c379a00000000000000000000000000000000000000000000000000000000081526004016113e490612981565b60405180910390fd5b80600a6000848152602001908152602001600020908161140d9190612f59565b505050565b60008183611420919061305a565b905092915050565b611431816118c2565b611470576040517f08c379a000000000000000000000000000000000000000000000000000000000815260040161146790612a59565b60405180910390fd5b50565b600033905090565b816004600083815260200190815260200160002060006101000a81548173ffffffffffffffffffffffffffffffffffffffff021916908373ffffffffffffffffffffffffffffffffffffffff160217905550808273ffffffffffffffffffffffffffffffffffffffff166114ee83610b73565b73ffffffffffffffffffffffffffffffffffffffff167f8c5be1e5ebec7d5bd14f71427d1e84f3dd0314c0f7b2291e5b200ac8c7c3b92560405160405180910390a45050565b60008061154083610b73565b90508073ffffffffffffffffffffffffffffffffffffffff168473ffffffffffffffffffffffffffffffffffffffff16148061158257506115818185610e97565b5b806115c057508373ffffffffffffffffffffffffffffffffffffffff166115a884610866565b73ffffffffffffffffffffffffffffffffffffffff16145b91505092915050565b8273ffffffffffffffffffffffffffffffffffffffff166115e982610b73565b73ffffffffffffffffffffffffffffffffffffffff161461163f576040517f08c379a000000000000000000000000000000000000000000000000000000000815260040161163690613100565b60405180910390fd5b600073ffffffffffffffffffffffffffffffffffffffff168273ffffffffffffffffffffffffffffffffffffffff16036116ae576040517f08c379a00000000000000000000000000000000000000000000000000000000081526004016116a590613192565b60405180910390fd5b6116bb8383836001611cb3565b8273ffffffffffffffffffffffffffffffffffffffff166116db82610b73565b73ffffffffffffffffffffffffffffffffffffffff1614611731576040517f08c379a000000000000000000000000000000000000000000000000000000000815260040161172890613100565b60405180910390fd5b6004600082815260200190815260200160002060006101000a81549073ffffffffffffffffffffffffffffffffffffffff02191690556001600360008573ffffffffffffffffffffffffffffffffffffffff1673ffffffffffffffffffffffffffffffffffffffff168152602001908152602001600020600082825403925050819055506001600360008473ffffffffffffffffffffffffffffffffffffffff1673ffffffffffffffffffffffffffffffffffffffff16815260200190815260200160002060008282540192505081905550816002600083815260200190815260200160002060006101000a81548173ffffffffffffffffffffffffffffffffffffffff021916908373ffffffffffffffffffffffffffffffffffffffff160217905550808273ffffffffffffffffffffffffffffffffffffffff168473ffffffffffffffffffffffffffffffffffffffff167fddf252ad1be2c89b69c2b068fc378daa952ba7f163c4a11628f55a4df523b3ef60405160405180910390a46118bd8383836001611cb9565b505050565b60008073ffffffffffffffffffffffffffffffffffffffff166118e483611903565b73ffffffffffffffffffffffffffffffffffffffff1614159050919050565b60006002600083815260200190815260200160002060009054906101000a900473ffffffffffffffffffffffffffffffffffffffff169050919050565b6000600660009054906101000a900473ffffffffffffffffffffffffffffffffffffffff16905081600660006101000a81548173ffffffffffffffffffffffffffffffffffffffff021916908373ffffffffffffffffffffffffffffffffffffffff1602179055508173ffffffffffffffffffffffffffffffffffffffff168173ffffffffffffffffffffffffffffffffffffffff167f8be0079c531659141344cd1fd0a4f28419497f9722a3daafe3b4186f6b6457e060405160405180910390a35050565b8173ffffffffffffffffffffffffffffffffffffffff168373ffffffffffffffffffffffffffffffffffffffff1603611a74576040517f08c379a0000000000000000000000000000000000000000000000000000000008152600401611a6b906131fe565b60405180910390fd5b80600560008573ffffffffffffffffffffffffffffffffffffffff1673ffffffffffffffffffffffffffffffffffffffff16815260200190815260200160002060008473ffffffffffffffffffffffffffffffffffffffff1673ffffffffffffffffffffffffffffffffffffffff16815260200190815260200160002060006101000a81548160ff0219169083151502179055508173ffffffffffffffffffffffffffffffffffffffff168373ffffffffffffffffffffffffffffffffffffffff167f17307eab39ab6107e8899845ad3d59bd9653f200f220920489ca2b5937696c3183604051611b659190612070565b60405180910390a3505050565b611b7d8484846115c9565b611b8984848484611cbf565b611bc8576040517f08c379a0000000000000000000000000000000000000000000000000000000008152600401611bbf90613290565b60405180910390fd5b50505050565b606060405180602001604052806000815250905090565b606060006001611bf484611e46565b01905060008167ffffffffffffffff811115611c1357611c126120a6565b5b6040519080825280601f01601f191660200182016040528015611c455781602001600182028036833780820191505090505b509050600082602001820190505b600115611ca8578080600190039150507f3031323334353637383961626364656600000000000000000000000000000000600a86061a8153600a8581611c9c57611c9b6132b0565b5b04945060008503611c53575b819350505050919050565b50505050565b50505050565b6000611ce08473ffffffffffffffffffffffffffffffffffffffff16611f99565b15611e39578373ffffffffffffffffffffffffffffffffffffffff1663150b7a02611d09611473565b8786866040518563ffffffff1660e01b8152600401611d2b9493929190613334565b6020604051808303816000875af1925050508015611d6757506040513d601f19601f82011682018060405250810190611d649190613395565b60015b611de9573d8060008114611d97576040519150601f19603f3d011682016040523d82523d6000602084013e611d9c565b606091505b506000815103611de1576040517f08c379a0000000000000000000000000000000000000000000000000000000008152600401611dd890613290565b60405180910390fd5b805181602001fd5b63150b7a0260e01b7bffffffffffffffffffffffffffffffffffffffffffffffffffffffff1916817bffffffffffffffffffffffffffffffffffffffffffffffffffffffff191614915050611e3e565b600190505b949350505050565b600080600090507a184f03e93ff9f4daa797ed6e38ed64bf6a1f0100000000000000008310611ea4577a184f03e93ff9f4daa797ed6e38ed64bf6a1f0100000000000000008381611e9a57611e996132b0565b5b0492506040810190505b6d04ee2d6d415b85acef81000000008310611ee1576d04ee2d6d415b85acef81000000008381611ed757611ed66132b0565b5b0492506020810190505b662386f26fc100008310611f1057662386f26fc100008381611f0657611f056132b0565b5b0492506010810190505b6305f5e1008310611f39576305f5e1008381611f2f57611f2e6132b0565b5b0492506008810190505b6127108310611f5e576127108381611f5457611f536132b0565b5b0492506004810190505b60648310611f815760648381611f7757611f766132b0565b5b0492506002810190505b600a8310611f90576001810190505b80915050919050565b6000808273ffffffffffffffffffffffffffffffffffffffff163b119050919050565b6000604051905090565b600080fd5b600080fd5b60007fffffffff0000000000000000000000000000000000000000000000000000000082169050919050565b61200581611fd0565b811461201057600080fd5b50565b60008135905061202281611ffc565b92915050565b60006020828403121561203e5761203d611fc6565b5b600061204c84828501612013565b91505092915050565b60008115159050919050565b61206a81612055565b82525050565b60006020820190506120856000830184612061565b92915050565b600080fd5b600080fd5b6000601f19601f8301169050919050565b7f4e487b7100000000000000000000000000000000000000000000000000000000600052604160045260246000fd5b6120de82612095565b810181811067ffffffffffffffff821117156120fd576120fc6120a6565b5b80604052505050565b6000612110611fbc565b905061211c82826120d5565b919050565b600067ffffffffffffffff82111561213c5761213b6120a6565b5b61214582612095565b9050602081019050919050565b82818337600083830152505050565b600061217461216f84612121565b612106565b9050828152602081018484840111156121905761218f612090565b5b61219b848285612152565b509392505050565b600082601f8301126121b8576121b761208b565b5b81356121c8848260208601612161565b91505092915050565b6000819050919050565b6121e4816121d1565b81146121ef57600080fd5b50565b600081359050612201816121db565b92915050565b6000806040838503121561221e5761221d611fc6565b5b600083013567ffffffffffffffff81111561223c5761223b611fcb565b5b612248858286016121a3565b9250506020612259858286016121f2565b9150509250929050565b600081519050919050565b600082825260208201905092915050565b60005b8381101561229d578082015181840152602081019050612282565b60008484015250505050565b60006122b482612263565b6122be818561226e565b93506122ce81856020860161227f565b6122d781612095565b840191505092915050565b600060208201905081810360008301526122fc81846122a9565b905092915050565b60006020828403121561231a57612319611fc6565b5b6000612328848285016121f2565b91505092915050565b600073ffffffffffffffffffffffffffffffffffffffff82169050919050565b600061235c82612331565b9050919050565b61236c81612351565b82525050565b60006020820190506123876000830184612363565b92915050565b61239681612351565b81146123a157600080fd5b50565b6000813590506123b38161238d565b92915050565b600080604083850312156123d0576123cf611fc6565b5b60006123de858286016123a4565b92505060206123ef858286016121f2565b9150509250929050565b60008060006060848603121561241257612411611fc6565b5b6000612420868287016123a4565b9350506020612431868287016123a4565b9250506040612442868287016121f2565b9150509250925092565b60006020828403121561246257612461611fc6565b5b6000612470848285016123a4565b91505092915050565b612482816121d1565b82525050565b600060208201905061249d6000830184612479565b92915050565b6124ac81612055565b81146124b757600080fd5b50565b6000813590506124c9816124a3565b92915050565b600080604083850312156124e6576124e5611fc6565b5b60006124f4858286016123a4565b9250506020612505858286016124ba565b9150509250929050565b600067ffffffffffffffff82111561252a576125296120a6565b5b61253382612095565b9050602081019050919050565b600061255361254e8461250f565b612106565b90508281526020810184848401111561256f5761256e612090565b5b61257a848285612152565b509392505050565b600082601f8301126125975761259661208b565b5b81356125a7848260208601612540565b91505092915050565b600080600080608085870312156125ca576125c9611fc6565b5b60006125d8878288016123a4565b94505060206125e9878288016123a4565b93505060406125fa878288016121f2565b925050606085013567ffffffffffffffff81111561261b5761261a611fcb565b5b61262787828801612582565b91505092959194509250565b6000806040838503121561264a57612649611fc6565b5b6000612658858286016123a4565b9250506020612669858286016123a4565b9150509250929050565b6000806040838503121561268a57612689611fc6565b5b6000612698858286016121f2565b92505060206126a9858286016121f2565b9150509250929050565b7f496e73756666696369656e742066756e647320746f206d696e74000000000000600082015250565b60006126e9601a8361226e565b91506126f4826126b3565b602082019050919050565b60006020820190508181036000830152612718816126dc565b9050919050565b7f4e487b7100000000000000000000000000000000000000000000000000000000600052602260045260246000fd5b6000600282049050600182168061276657607f821691505b6020821081036127795761277861271f565b5b50919050565b7f4552433732313a20617070726f76616c20746f2063757272656e74206f776e6560008201527f7200000000000000000000000000000000000000000000000000000000000000602082015250565b60006127db60218361226e565b91506127e68261277f565b604082019050919050565b6000602082019050818103600083015261280a816127ce565b9050919050565b7f4552433732313a20617070726f76652063616c6c6572206973206e6f7420746f60008201527f6b656e206f776e6572206f7220617070726f76656420666f7220616c6c000000602082015250565b600061286d603d8361226e565b915061287882612811565b604082019050919050565b6000602082019050818103600083015261289c81612860565b9050919050565b7f4552433732313a2063616c6c6572206973206e6f7420746f6b656e206f776e6560008201527f72206f7220617070726f76656400000000000000000000000000000000000000602082015250565b60006128ff602d8361226e565b915061290a826128a3565b604082019050919050565b6000602082019050818103600083015261292e816128f2565b9050919050565b7f546f6b656e20646f6573206e6f74206578697374000000000000000000000000600082015250565b600061296b60148361226e565b915061297682612935565b602082019050919050565b6000602082019050818103600083015261299a8161295e565b9050919050565b7f496e73756666696369656e742066756e647320746f2062757900000000000000600082015250565b60006129d760198361226e565b91506129e2826129a1565b602082019050919050565b60006020820190508181036000830152612a06816129ca565b9050919050565b7f4552433732313a20696e76616c696420746f6b656e2049440000000000000000600082015250565b6000612a4360188361226e565b9150612a4e82612a0d565b602082019050919050565b60006020820190508181036000830152612a7281612a36565b9050919050565b7f4552433732313a2061646472657373207a65726f206973206e6f74206120766160008201527f6c6964206f776e65720000000000000000000000000000000000000000000000602082015250565b6000612ad560298361226e565b9150612ae082612a79565b604082019050919050565b60006020820190508181036000830152612b0481612ac8565b9050919050565b600081905092915050565b6000612b2182612263565b612b2b8185612b0b565b9350612b3b81856020860161227f565b80840191505092915050565b6000612b538285612b16565b9150612b5f8284612b16565b91508190509392505050565b7f4f6e6c79206f776e65722063616e207365742070726963650000000000000000600082015250565b6000612ba160188361226e565b9150612bac82612b6b565b602082019050919050565b60006020820190508181036000830152612bd081612b94565b9050919050565b7f4f776e61626c653a206e6577206f776e657220697320746865207a65726f206160008201527f6464726573730000000000000000000000000000000000000000000000000000602082015250565b6000612c3360268361226e565b9150612c3e82612bd7565b604082019050919050565b60006020820190508181036000830152612c6281612c26565b9050919050565b7f4f776e61626c653a2063616c6c6572206973206e6f7420746865206f776e6572600082015250565b6000612c9f60208361226e565b9150612caa82612c69565b602082019050919050565b60006020820190508181036000830152612cce81612c92565b9050919050565b7f4552433732313a206d696e7420746f20746865207a65726f2061646472657373600082015250565b6000612d0b60208361226e565b9150612d1682612cd5565b602082019050919050565b60006020820190508181036000830152612d3a81612cfe565b9050919050565b7f4552433732313a20746f6b656e20616c7265616479206d696e74656400000000600082015250565b6000612d77601c8361226e565b9150612d8282612d41565b602082019050919050565b60006020820190508181036000830152612da681612d6a565b9050919050565b60008190508160005260206000209050919050565b60006020601f8301049050919050565b600082821b905092915050565b600060088302612e0f7fffffffffffffffffffffffffffffffffffffffffffffffffffffffffffffffff82612dd2565b612e198683612dd2565b95508019841693508086168417925050509392505050565b6000819050919050565b6000612e56612e51612e4c846121d1565b612e31565b6121d1565b9050919050565b6000819050919050565b612e7083612e3b565b612e84612e7c82612e5d565b848454612ddf565b825550505050565b600090565b612e99612e8c565b612ea4818484612e67565b505050565b5b81811015612ec857612ebd600082612e91565b600181019050612eaa565b5050565b601f821115612f0d57612ede81612dad565b612ee784612dc2565b81016020851015612ef6578190505b612f0a612f0285612dc2565b830182612ea9565b50505b505050565b600082821c905092915050565b6000612f3060001984600802612f12565b1980831691505092915050565b6000612f498383612f1f565b9150826002028217905092915050565b612f6282612263565b67ffffffffffffffff811115612f7b57612f7a6120a6565b5b612f85825461274e565b612f90828285612ecc565b600060209050601f831160018114612fc35760008415612fb1578287015190505b612fbb8582612f3d565b865550613023565b601f198416612fd186612dad565b60005b82811015612ff957848901518255600182019150602085019450602081019050612fd4565b868310156130165784890151613012601f891682612f1f565b8355505b6001600288020188555050505b505050505050565b7f4e487b7100000000000000000000000000000000000000000000000000000000600052601160045260246000fd5b6000613065826121d1565b9150613070836121d1565b92508282019050808211156130885761308761302b565b5b92915050565b7f4552433732313a207472616e736665722066726f6d20696e636f72726563742060008201527f6f776e6572000000000000000000000000000000000000000000000000000000602082015250565b60006130ea60258361226e565b91506130f58261308e565b604082019050919050565b60006020820190508181036000830152613119816130dd565b9050919050565b7f4552433732313a207472616e7366657220746f20746865207a65726f2061646460008201527f7265737300000000000000000000000000000000000000000000000000000000602082015250565b600061317c60248361226e565b915061318782613120565b604082019050919050565b600060208201905081810360008301526131ab8161316f565b9050919050565b7f4552433732313a20617070726f766520746f2063616c6c657200000000000000600082015250565b60006131e860198361226e565b91506131f3826131b2565b602082019050919050565b60006020820190508181036000830152613217816131db565b9050919050565b7f4552433732313a207472616e7366657220746f206e6f6e20455243373231526560008201527f63656976657220696d706c656d656e7465720000000000000000000000000000602082015250565b600061327a60328361226e565b91506132858261321e565b604082019050919050565b600060208201905081810360008301526132a98161326d565b9050919050565b7f4e487b7100000000000000000000000000000000000000000000000000000000600052601260045260246000fd5b600081519050919050565b600082825260208201905092915050565b6000613306826132df565b61331081856132ea565b935061332081856020860161227f565b61332981612095565b840191505092915050565b60006080820190506133496000830187612363565b6133566020830186612363565b6133636040830185612479565b818103606083015261337581846132fb565b905095945050505050565b60008151905061338f81611ffc565b92915050565b6000602082840312156133ab576133aa611fc6565b5b60006133b984828501613380565b9150509291505056fea2646970667358221220d907fd755ae6051fd6bcf70c355ab1f16338c096841a69d00cbc093f1e7d024164736f6c63430008120033",
  "linkReferences": {},
  "deployedLinkReferences": {}
}